:100000000C942A000C9447000C9447000C94470071
:100010000C9447000C9447000C9447000C94470044
:100020000C9447000C9447000C9447000C94470034
:100030000C9447000C9447000C9447000C94470024
:100040000C947A0C0C9447000C9447000C944700D5
:100050000C94470011241FBECFE5D8E0DEBFCDBF12
:1000600010E0A0E6B0E0E6E8F5E402C005900D92ED
:10007000A83FB107D9F710E0A8EFB0E001C01D928A
:10008000AE3FB107E1F70E94621B0C94C1220C94B1
:100090000000EF92FF920F931F937B018C0120E0F1
:1000A00030E040E05FE40E94490388238CF0C801FF
:1000B000B70120E030E040E05FE40E94C1010E940F
:1000C000A9039B01AC01205030404040504806C07D
:1000D000C801B7010E94A9039B01AC01B901CA0183
:1000E0001F910F91FF90EF900895A0E0B0E0EBE733
:1000F000F0E00C948A22DC012B01FA019C919230F1
:1001000008F439C1EB018881823008F433C194309E
:1001100069F4843009F02FC111969C91119789815F
:10012000981709F428C1A3EEB0E025C1843009F482
:1001300021C18230A9F4923009F01DC19A01AD01AC
:1001400088E0EA010990AE01E90109929E0181501F
:10015000C1F7E201898111969C918923818308C1AD
:10016000923009F407C112962D903C901397EB0141
:100170008A819B811496AD90BD90CD90DC901797AD
:10018000EC80FD800E811F819101281B390BB90184
:1001900037FF04C066277727621B730B6032710537
:1001A0000CF061C0121613066CF537014801062EDB
:1001B00004C096948794779467940A94D2F721E0C8
:1001C00030E040E050E004C0220F331F441F551FB1
:1001D0006A95D2F721503040404050402E213F21B7
:1001E00040235123211531054105510521F021E01E
:1001F00030E040E050E079018A01E628F72808293C
:1002000019293CC0232BD1F1260E371E350146019A
:10021000062E04C096948794779467940A94D2F734
:1002200021E030E040E050E004C0220F331F441FC3
:10023000551F6A95D2F721503040404050402A2146
:100240003B214C215D21211531054105510521F04E
:1002500021E030E040E050E059016A01A628B728CB
:10026000C828D9280BC0821593052CF01C01AA249C
:10027000BB24650103C0EE24FF24870111969C91E5
:10028000D20111968C91981709F445C0992339F041
:10029000A80197012A193B094C095D0906C0A6016E
:1002A00095012E193F09400B510B57FD08C01182D3
:1002B0003382228224833583468357831DC081E0A5
:1002C00081833382228288279927DC01821B930B4A
:1002D000A40BB50B84839583A683B7830DC0220F2F
:1002E000331F441F551F24833583468357838281E0
:1002F000938101979383828324813581468157813D
:10030000DA01C9010197A109B1098F5F9F4FAF4F72
:10031000BF4328F30BC0918333822282EA0CFB1C7B
:100320000C1D1D1DE482F5820683178383E0808304
:10033000248135814681578157FF1AC0C901AA27F8
:1003400097FDA095BA2F81709070A070B0705695EF
:10035000479537952795822B932BA42BB52B848318
:100360009583A683B7838281938101969383828349
:10037000DF0101C0D201CD01CDB7DEB7E2E10C94BF
:10038000A622A0E2B0E0E7ECF1E00C9496226983AB
:100390007A838B839C832D833E834F835887E9E048
:1003A000EE2EF12CEC0EFD1ECE010196B7010E943F
:1003B000D2048E010F5E1F4FCE010596B8010E9438
:1003C000D2048A8991E089278A8BC701B801AE01DE
:1003D000475E5F4F0E9475000E94FD03A096E6E015
:1003E0000C94B222A0E2B0E0E8EFF1E00C94962287
:1003F00069837A838B839C832D833E834F835887C5
:10040000F9E0EF2EF12CEC0EFD1ECE010196B701A6
:100410000E94D2048E010F5E1F4FCE010596B801D7
:100420000E94D204C701B801AE01475E5F4F0E942F
:1004300075000E94FD03A096E6E00C94B222A0E2B3
:10044000B0E0E5E2F2E00C948A2269837A838B8340
:100450009C832D833E834F835887CE010196BE0136
:10046000675F7F4F0E94D204CE010596BE016F5E8A
:100470007F4F0E94D2049985923088F0898982301A
:10048000C8F0943019F4823051F404C0843029F457
:10049000923081F483EE90E0C6C0923049F420E0BF
:1004A0009A858A89981321E02A87CE010996BBC0D4
:1004B000823049F420E09A858A89981321E02A8BBA
:1004C000CE014196B0C02D843E844F8458886D88FB
:1004D0007E888F88988CEE24FF248701AA24BB2471
:1004E000650140E050E060E070E0E0E0F0E0C10174
:1004F00081709070892BE9F0E60CF71C081D191D1E
:100500009A01AB012A0D3B1D4C1D5D1D80E090E062
:10051000A0E0B0E0E614F7040805190520F481E036
:1005200090E0A0E0B0E0BA01A901480F591F6A1F8E
:100530007B1FAA0CBB1CCC1CDD1C97FE08C081E0F5
:1005400090E0A0E0B0E0A82AB92ACA2ADB2A3196B6
:10055000E032F10549F0660C771C881C991C569412
:10056000479437942794C3CFFA85EA892B893C892D
:100570008B859C85280F391F2E5F3F4F17C0CA01FE
:1005800081709070892B61F016950795F794E79428
:1005900080E090E0A0E0B0E8E82AF92A0A2B1B2BC3
:1005A00076956795579547952F5F3F4F77FDE7CF36
:1005B0000CC0440F551F661F771F17FD4160EE0CDE
:1005C000FF1C001F111F21503040403090E05907A0
:1005D00090E0690790E4790760F32B8F3C8FDB0193
:1005E000CA018F779070A070B07080349105A1051A
:1005F000B10561F447FD0AC0E114F10401051105DC
:1006000029F0405C5F4F6F4F7F4F40781A8EFE1786
:1006100011F081E08A8F4D8F5E8F6F8F78A383E01A
:10062000898FCE0149960E94FD03A096E2E10C94C9
:10063000A622A8E1B0E0EFE1F3E00C9496226983F2
:100640007A838B839C832D833E834F83588789E0F5
:10065000E82EF12CEC0EFD1ECE010196B7010E9492
:10066000D2048E010F5E1F4FCE010596B8010E9485
:10067000D2048985823040F08989823028F0C70110
:10068000B8010E944A0501C08FEF6896E6E00C941D
:10069000B222A8E1B0E0EFE4F3E00C949622698383
:1006A0007A838B839C832D833E834F83588789E095
:1006B000E82EF12CEC0EFD1ECE010196B7010E9432
:1006C000D2048E010F5E1F4FCE010596B8010E9425
:1006D000D2048985823040F08989823028F0C701B0
:1006E000B8010E944A0501C08FEF6896E6E00C94BD
:1006F000B222A8E1B0E0EFE7F3E00C949622698320
:100700007A838B839C832D833E834F83588789E034
:10071000E82EF12CEC0EFD1ECE010196B7010E94D1
:10072000D2048E010F5E1F4FCE010596B8010E94C4
:10073000D2048985823040F08989823028F0C7014F
:10074000B8010E944A0501C081E06896E6E00C9479
:10075000B222ACE0B0E0EFEAF3E00C949A226983B5
:100760007A838B839C83CE010196BE016B5F7F4FA2
:100770000E94D2048D81823061F1823050F1843048
:1007800021F48E81882351F12EC02F81388537FDC9
:1007900020C06E812F3131051CF06623F9F023C093
:1007A0008EE190E0821B930B29853A854B855C8511
:1007B00004C056954795379527958A95D2F76623B5
:1007C000B1F050954095309521953F4F4F4F5F4F79
:1007D0000EC020E030E040E050E009C02FEF3FEFD6
:1007E0004FEF5FE704C020E030E040E050E8B9019F
:1007F000CA012C96E2E00C94B622DF92EF92FF92AF
:100800000F931F93FC01E480F58006811781D1804E
:100810008081823048F480E090E0A0E1B0E0E82AF6
:10082000F92A0A2B1B2BA5C0843009F49FC0823003
:1008300021F4EE24FF24870105C0E114F104010531
:10084000110519F4E0E0F0E096C0628173819FEF3A
:10085000623879070CF05BC022E83FEF261B370BAC
:100860002A3131052CF020E030E040E050E02AC091
:10087000B801A701022E04C0769567955795479554
:100880000A94D2F781E090E0A0E0B0E004C0880FC5
:10089000991FAA1FBB1F2A95D2F70197A109B10979
:1008A0008E219F21A023B1230097A105B10521F03E
:1008B00081E090E0A0E0B0E09A01AB01282B392B59
:1008C0004A2B5B2BDA01C9018F779070A070B07052
:1008D00080349105A105B10539F427FF09C0205CDA
:1008E0003F4F4F4F5F4F04C0215C3F4F4F4F5F4F13
:1008F000E0E0F0E02030A0E03A07A0E04A07A0E402
:100900005A0710F0E1E0F0E079018A0127C0603871
:10091000710564F5FB01E158FF4FD801C7018F77DE
:100920009070A070B07080349105A105B10539F4C4
:10093000E7FE0DC080E490E0A0E0B0E004C08FE3EB
:1009400090E0A0E0B0E0E80EF91E0A1F1B1F17FFA1
:1009500005C016950795F794E794319687E01695AC
:100960000795F794E7948A95D1F705C0EE24FF2404
:100970008701EFEFF0E06E2F679566276795902F60
:100980009F77D794DD24D7948E2F8695492F462BB9
:10099000582F5D29B701CA011F910F91FF90EF9069
:1009A000DF900895FC01DB01408151812281622F9B
:1009B0006F7770E0221F2227221F9381892F880FD3
:1009C000822B282F30E0991F9927991F11969C930D
:1009D000119721153105A9F54115510561057105DD
:1009E00011F482E037C082E89FEF13969C938E93B8
:1009F00012979A01AB0167E0220F331F441F551F66
:100A00006A95D1F783E08C930DC0220F331F441FEA
:100A1000551F12968D919C911397019713969C9355
:100A20008E931297203080E0380780E0480780E4FA
:100A3000580758F314962D933D934D935C93179755
:100A400008952F3F310579F4411551056105710570
:100A500019F484E08C93089564FF03C081E08C93C3
:100A600012C01C9210C02F57304013963C932E9307
:100A7000129783E08C9387E0440F551F661F771F02
:100A80008A95D1F7706414964D935D936D937C9322
:100A9000179708951F93DC01FB019C91923008F495
:100AA00047C08081823008F443C0943051F41196DD
:100AB0001C91843099F58181682F70E0611B710968
:100AC0003FC0843021F0923031F48230B9F181811D
:100AD000882389F12DC011961C9111978230F1F075
:100AE00081811817D9F412962D913C911397828128
:100AF00093818217930794F028173907BCF0149656
:100B00008D919D910D90BC91A02D248135814681C0
:100B10005781281739074A075B0718F4112341F05A
:100B20000AC082179307A407B50740F4112319F0F0
:100B300061E070E005C06FEF7FEF02C060E070E041
:100B4000CB011F910895DF93CF9300D00F92CDB7C3
:100B5000DEB79A8389836B83EEE3F0E089819A8123
:100B600091838083EDE3F0E08B818083ACE3B0E0A0
:100B7000ECE3F0E0808184608C93ACE3B0E0ECE3E4
:100B8000F0E0808182608C93ECE3F0E08081882F3C
:100B900090E0827090709595879581309105A1F3D2
:100BA0000F900F900F90CF91DF910895DF93CF9327
:100BB00000D0CDB7DEB79A838983EEE3F0E0898178
:100BC0009A8191838083ACE3B0E0ECE3F0E0808134
:100BD00081608C93EDE3F0E080810F900F90CF91D6
:100BE000DF910895DF93CF9300D000D00F92CDB75F
:100BF000DEB789836A834B838981282F30E03D8368
:100C00002C838C819D818130910509F447C02C8112
:100C10003D81223031052CF48C819D81009771F04B
:100C2000CBC02C813D812230310509F467C08C8115
:100C30009D818330910509F491C0BEC08B818823CA
:100C4000A9F4AAE3B0E0EAE3F0E08081482F8A81CA
:100C5000282F30E081E090E0022E02C0880F991F1B
:100C60000A94E2F7809584238C93A6C08B8181300F
:100C700009F0A2C0AAE3B0E0EAE3F0E08081482FE7
:100C80008A81282F30E081E090E0022E02C0880F98
:100C9000991F0A94E2F7842B8C938EC08B81882352
:100CA000A9F4A7E3B0E0E7E3F0E08081482F8A8170
:100CB000282F30E081E090E0022E02C0880F991FBB
:100CC0000A94E2F7809584238C9376C08B818130DF
:100CD00009F072C0A7E3B0E0E7E3F0E08081482FBD
:100CE0008A81282F30E081E090E0022E02C0880F38
:100CF000991F0A94E2F7842B8C935EC08B81882322
:100D0000A9F4A4E3B0E0E4E3F0E08081482F8A8115
:100D1000282F30E081E090E0022E02C0880F991F5A
:100D20000A94E2F7809584238C9346C08B818130AE
:100D300009F042C0A4E3B0E0E4E3F0E08081482F92
:100D40008A81282F30E081E090E0022E02C0880FD7
:100D5000991F0A94E2F7842B8C932EC08B818823F1
:100D6000A9F4A1E3B0E0E1E3F0E08081482F8A81BB
:100D7000282F30E081E090E0022E02C0880F991FFA
:100D80000A94E2F7809584238C9316C08B8181307E
:100D900099F4A1E3B0E0E1E3F0E08081482F8A819B
:100DA000282F30E081E090E0022E02C0880F991FCA
:100DB0000A94E2F7842B8C930F900F900F900F9072
:100DC0000F90CF91DF910895DF93CF9300D000D0A3
:100DD0000F92CDB7DEB789836A834B838981282F31
:100DE00030E03D832C838C819D818130910509F415
:100DF00047C02C813D81223031052CF48C819D81AE
:100E0000009771F0CBC02C813D812230310509F46F
:100E100067C08C819D818330910509F491C0BEC06B
:100E20008B818823A9F4ABE3B0E0EBE3F0E08081B1
:100E3000482F8A81282F30E081E090E0022E02C006
:100E4000880F991F0A94E2F7809584238C93A6C09B
:100E50008B81813009F0A2C0ABE3B0E0EBE3F0E0BE
:100E60008081482F8A81282F30E081E090E0022E97
:100E700002C0880F991F0A94E2F7842B8C938EC0CE
:100E80008B818823A9F4A8E3B0E0E8E3F0E0808157
:100E9000482F8A81282F30E081E090E0022E02C0A6
:100EA000880F991F0A94E2F7809584238C9376C06B
:100EB0008B81813009F072C0A8E3B0E0E8E3F0E094
:100EC0008081482F8A81282F30E081E090E0022E37
:100ED00002C0880F991F0A94E2F7842B8C935EC09E
:100EE0008B818823A9F4A5E3B0E0E5E3F0E08081FD
:100EF000482F8A81282F30E081E090E0022E02C046
:100F0000880F991F0A94E2F7809584238C9346C03A
:100F10008B81813009F042C0A5E3B0E0E5E3F0E069
:100F20008081482F8A81282F30E081E090E0022ED6
:100F300002C0880F991F0A94E2F7842B8C932EC06D
:100F40008B818823A9F4A2E3B0E0E2E3F0E08081A2
:100F5000482F8A81282F30E081E090E0022E02C0E5
:100F6000880F991F0A94E2F7809584238C9316C00A
:100F70008B81813099F4A2E3B0E0E2E3F0E080817C
:100F8000482F8A81282F30E081E090E0022E02C0B5
:100F9000880F991F0A94E2F7842B8C930F900F907F
:100FA0000F900F900F90CF91DF910895DF93CF9323
:100FB00000D000D0CDB7DEB789836A838981282F1E
:100FC00030E03C832B838B819C818130910549F1FA
:100FD0002B813C81223031052CF48B819C81009740
:100FE00061F05AC02B813C812230310571F18B8137
:100FF0009C8183309105E9F14FC0ABE3B0E0EBE3B6
:10100000F0E08081482F8A81282F30E081E090E055
:10101000022E02C0880F991F0A94E2F784278C934E
:101020003BC0A8E3B0E0E8E3F0E08081482F8A818C
:10103000282F30E081E090E0022E02C0880F991F37
:101040000A94E2F784278C9327C0A5E3B0E0E5E398
:10105000F0E08081482F8A81282F30E081E090E005
:10106000022E02C0880F991F0A94E2F784278C93FE
:1010700013C0A2E3B0E0E2E3F0E08081482F8A8170
:10108000282F30E081E090E0022E02C0880F991FE7
:101090000A94E2F784278C930F900F900F900F9093
:1010A000CF91DF910895DF93CF9300D000D00F92BE
:1010B000CDB7DEB78A836B838A81282F30E03D83EA
:1010C0002C834C815D8141305105B1F18C819D8132
:1010D0008230910534F42C813D812115310571F068
:1010E00084C04C815D814230510509F443C08C813C
:1010F0009D818330910509F45BC077C0E9E3F0E09E
:101100008081482F50E08B81282F30E081E090E0F3
:1011100002C0880F991F2A95E2F79A0128233923E4
:101120008B81882F90E0A90102C0559547958A953B
:10113000E2F7CA01898359C0E6E3F0E08081482FD5
:1011400050E08B81282F30E081E090E002C0880FD2
:10115000991F2A95E2F79A01282339238B81882F3A
:1011600090E0A90102C0559547958A95E2F7CA011A
:1011700089833BC0E3E3F0E08081482F50E08B811E
:10118000282F30E081E090E002C0880F991F2A9557
:10119000E2F79A01282339238B81882F90E0A90157
:1011A00002C0559547958A95E2F7CA0189831DC00B
:1011B000E0E3F0E08081482F50E08B81282F30E081
:1011C00081E090E002C0880F991F2A95E2F79A010A
:1011D000282339238B81882F90E0A90102C05595DF
:1011E00047958A95E2F7CA01898389810F900F900C
:1011F0000F900F900F90CF91DF910895DF93CF93D1
:1012000000D000D0CDB7DEB789836A838981282FCB
:1012100030E03C832B838B819C8181309105D1F020
:101220002B813C81223031052CF48B819C810097ED
:1012300061F01EC02B813C812230310581F08B8111
:101240009C818330910581F013C0EAE3F0E08A814C
:1012500080830EC0E7E3F0E08A81808309C0E4E385
:10126000F0E08A81808304C0E1E3F0E08A8180833A
:101270000F900F900F900F90CF91DF910895DF9313
:10128000CF9300D000D0CDB7DEB789836A83898140
:10129000282F30E03C832B838B819C81813091050A
:1012A000D1F02B813C81223031052CF48B819C8143
:1012B000009761F01EC02B813C812230310581F006
:1012C0008B819C818330910581F013C0EBE3F0E0CA
:1012D0008A8180830EC0E8E3F0E08A81808309C0C0
:1012E000E5E3F0E08A81808304C0E2E3F0E08A81F4
:1012F00080830F900F900F900F90CF91DF91089502
:10130000DF93CF9300D00F92CDB7DEB78983898169
:10131000282F30E03B832A838A819B81813091058D
:10132000E9F02A813B81223031052CF48A819B81AE
:10133000009761F02AC02A813B8122303105B1F04B
:101340008A819B8183309105C9F01FC0ABE3B0E077
:10135000EBE3F0E0808180958C9317C0A8E3B0E0C8
:10136000E8E3F0E0808180958C930FC0A5E3B0E0C6
:10137000E5E3F0E0808180958C9307C0A2E3B0E0C4
:10138000E2E3F0E0808180958C930F900F900F90B6
:10139000CF91DF910895DF93CF9300D000D0CDB7E8
:1013A000DEB78A838A81282F30E03C832B838B81B0
:1013B0009C8181309105D1F02B813C812230310517
:1013C0002CF48B819C81009761F01EC02B813C81A5
:1013D0002230310581F08B819C818330910581F031
:1013E00013C0E9E3F0E0808189830EC0E6E3F0E01A
:1013F0008081898309C0E3E3F0E08081898304C0B0
:10140000E0E3F0E08081898389810F900F900F9055
:101410000F90CF91DF910895DF93CF9300D000D04C
:1014200000D0CDB7DEB789836A838A81282F30E068
:101430003E832D838D819E8181309105C1F02D8168
:101440003E812230310511F18D819E81009761F539
:10145000A7E2B0E0E7E2F0E080818F7B8C93A7E227
:10146000B0E0E7E2F0E080818F778C931DC0A7E2C7
:10147000B0E0E7E2F0E0808180648C93A7E2B0E026
:10148000E7E2F0E080818F778C930EC0A7E2B0E0B6
:10149000E7E2F0E0808180648C93A7E2B0E0E7E2CD
:1014A000F0E0808180688C93A6E2B0E0E6E2F0E0B4
:1014B000808180688C93A6E2B0E0E6E2F0E0808173
:1014C00088608C93AFE5B0E0EFE5F0E08081806864
:1014D0008C938981282F30E03C832B838B819C81E6
:1014E0008330910509F46AC02B813C812430310599
:1014F00084F48B819C8181309105A1F12B813C8109
:10150000223031050CF044C08B819C810097A1F002
:10151000ACC02B813C812530310509F47BC08B8127
:101520009C81853091050CF45FC02B813C81263075
:10153000310509F485C099C0A6E2B0E0E6E2F0E02A
:1015400080818E7F8C93A6E2B0E0E6E2F0E08081BD
:101550008D7F8C93A6E2B0E0E6E2F0E080818B7FA5
:101560008C9383C0A6E2B0E0E6E2F0E080818E7F5B
:101570008C93A6E2B0E0E6E2F0E0808182608C939A
:10158000A6E2B0E0E6E2F0E080818B7F8C936DC054
:10159000A6E2B0E0E6E2F0E0808181608C93A6E212
:1015A000B0E0E6E2F0E0808182608C93A6E2B0E0F9
:1015B000E6E2F0E080818B7F8C9357C0A6E2B0E03A
:1015C000E6E2F0E080818E7F8C93A6E2B0E0E6E276
:1015D000F0E080818D7F8C93A6E2B0E0E6E2F0E05F
:1015E000808184608C9341C0A6E2B0E0E6E2F0E046
:1015F000808181608C93A6E2B0E0E6E2F0E0808139
:101600008D7F8C93A6E2B0E0E6E2F0E0808184601A
:101610008C932BC0A6E2B0E0E6E2F0E080818E7F02
:101620008C93A6E2B0E0E6E2F0E0808182608C93E9
:10163000A6E2B0E0E6E2F0E0808184608C9315C021
:10164000A6E2B0E0E6E2F0E0808181608C93A6E261
:10165000B0E0E6E2F0E0808182608C93A6E2B0E048
:10166000E6E2F0E0808184608C9326960FB6F894D1
:10167000DEBF0FBECDBFCF91DF910895DF93CF9333
:1016800000D00F92CDB7DEB789838981282F30E053
:101690003B832A838A819B818330910509F470C042
:1016A0002A813B812430310584F48A819B818130F9
:1016B0009105D1F12A813B81223031050CF04AC0DD
:1016C0008A819B810097D1F0C8C02A813B81253057
:1016D000310509F481C08A819B81853091050CF424
:1016E00065C02A813B812630310509F48BC08A818F
:1016F0009B818730910509F49BC0AFC0A7E2B0E0A1
:10170000E7E2F0E080818E7F8C93A7E2B0E0E7E231
:10171000F0E080818D7F8C93A7E2B0E0E7E2F0E01B
:1017200080818B7F8C9399C0A7E2B0E0E7E2F0E084
:10173000808181608C93A7E2B0E0E7E2F0E08081F5
:101740008D7F8C93A7E2B0E0E7E2F0E080818B7FB1
:101750008C9383C0A7E2B0E0E7E2F0E080818E7F67
:101760008C93A7E2B0E0E7E2F0E0808182608C93A6
:10177000A7E2B0E0E7E2F0E080818B7F8C936DC060
:10178000A7E2B0E0E7E2F0E0808181608C93A7E21D
:10179000B0E0E7E2F0E0808182608C93A7E2B0E005
:1017A000E7E2F0E080818B7F8C9357C0A7E2B0E046
:1017B000E7E2F0E080818E7F8C93A7E2B0E0E7E281
:1017C000F0E080818D7F8C93A7E2B0E0E7E2F0E06B
:1017D000808184608C9341C0A7E2B0E0E7E2F0E052
:1017E000808181608C93A7E2B0E0E7E2F0E0808145
:1017F0008D7F8C93A7E2B0E0E7E2F0E08081846027
:101800008C932BC0A7E2B0E0E7E2F0E080818E7F0E
:101810008C93A7E2B0E0E7E2F0E0808182608C93F5
:10182000A7E2B0E0E7E2F0E0808184608C9315C02D
:10183000A7E2B0E0E7E2F0E0808181608C93A7E26C
:10184000B0E0E7E2F0E0808182608C93A7E2B0E054
:10185000E7E2F0E0808184608C93A6E2B0E0E6E20B
:10186000F0E0808180648C930F900F900F90CF9167
:10187000DF910895DF93CF93CDB7DEB7E4E2F0E0D8
:1018800080819181CF91DF910895DF93CF93CDB780
:10189000DEB7E6E2F0E08081882F90E08071907002
:1018A0009595879595958795959587959595879520
:1018B000009779F3A6E2B0E0E6E2F0E08081806193
:1018C0008C93E4E2F0E080819181CF91DF910895E3
:1018D000DF93CF9300D0CDB7DEB79A838983898118
:1018E0009A819093FD008093FC000F900F90CF9110
:1018F000DF9108951F920F920FB60F9211242F932C
:101900003F934F935F936F937F938F939F93AF9387
:10191000BF93EF93FF93DF93CF93CDB7DEB7E09103
:10192000FC00F091FD000995CF91DF91FF91EF91BF
:10193000BF91AF919F918F917F916F915F914F91E7
:101940003F912F910F900FBE0F901F901895DF932E
:10195000CF9300D0CDB7DEB789836A8389816A814E
:1019600040E00E94F20589816A8141E00E94E4061C
:101970000F900F90CF91DF910895DF93CF93CDB764
:10198000DEB76F970FB6F894DEBF0FBECDBF8D8F59
:101990006E8F8D8D6E8D0E945308882309F0F6C0DE
:1019A00080E090E0A0EAB1E4898F9A8FAB8FBC8F82
:1019B000698D7A8D8B8D9C8D20E030E04AEF54E468
:1019C0000E941F02DC01CB018D8B9E8BAF8BB88FE9
:1019D0006D897E898F89988D20E030E040E85FE353
:1019E0000E94790388232CF481E090E09C8B8B8B00
:1019F0003FC06D897E898F89988D20E03FEF4FE74A
:101A000057E40E94190318164CF5698D7A8D8B8D59
:101A10009C8D20E030E040E251E40E941F02DC0196
:101A2000CB01BC01CD010E944900DC01CB019C8BA4
:101A30008B8B0FC088EC90E09A8B898B89899A896F
:101A40000197F1F79A8B898B8B899C8901979C8BE5
:101A50008B8B8B899C89009769F714C06D897E896F
:101A60008F89988D0E944900DC01CB019C8B8B8B68
:101A70008B899C89988B8F878F8598890197F1F73F
:101A8000988B8F878D8D6E8D0E945308882309F067
:101A90007AC08D8D6E8D0E9453088823D1F380E02B
:101AA00090E0A0EAB1E48B879C87AD87BE876B8509
:101AB0007C858D859E8520E030E04AEF54E40E94CD
:101AC0001F02DC01CB018F839887A987BA876F81BA
:101AD000788589859A8520E030E040E85FE30E94C0
:101AE000790388232CF481E090E09E838D833FC0AE
:101AF0006F81788589859A8520E03FEF4FE757E42D
:101B00000E94190318164CF56B857C858D859E8582
:101B100020E030E040E251E40E941F02DC01CB01F2
:101B2000BC01CD010E944900DC01CB019E838D8365
:101B30000FC088EC90E09C838B838B819C81019704
:101B4000F1F79C838B838D819E8101979E838D838A
:101B50008D819E81009769F714C06F817885898592
:101B60009A850E944900DC01CB019E838D838D8183
:101B70009E819A83898389819A810197F1F79A835B
:101B800089831F8E05C081E08F8F02C081E08F8F17
:101B90008F8D6F960FB6F894DEBF0FBECDBFCF917D
:101BA000DF910895DF93CF9300D0CDB7DEB789835F
:101BB0006A8389816A8141E00E94F2050F900F904B
:101BC000CF91DF910895DF93CF9300D0CDB7DEB7EB
:101BD00089836A8389816A8141E00E94E4060F90CB
:101BE0000F90CF91DF910895DF93CF9300D0CDB7C1
:101BF000DEB789836A8389816A8140E00E94E406B6
:101C00000F900F90CF91DF910895DF93CF9300D085
:101C1000CDB7DEB789836A8389816A810E94D6073E
:101C20000F900F90CF91DF9108950F931F93DF9343
:101C3000CF93CDB7DEB7C455D0400FB6F894DEBF12
:101C40000FBECDBFFE01EF5AFF4F80E090E0A8E449
:101C5000B2E480839183A283B3838E01035B1F4F21
:101C6000FE01EF5AFF4F608171818281938120E0F4
:101C700030E04AEF54E40E941F02DC01CB01F8017E
:101C800080839183A283B383FE01E35BFF4F608176
:101C900071818281938120E030E040E85FE30E941F
:101CA0007903882344F4FE01E55BFF4F81E090E077
:101CB0009183808364C0FE01E35BFF4F608171818B
:101CC0008281938120E03FEF4FE757E40E941903A0
:101CD00018160CF043C0FE01EF5AFF4F608171816E
:101CE0008281938120E030E040E251E40E941F02B3
:101CF000DC01CB018E01055B1F4FBC01CD010E94B1
:101D00004900DC01CB01F801918380831FC0FE01F3
:101D1000E75BFF4F88EC90E091838083FE01E75BF7
:101D2000FF4F808191810197F1F7FE01E75BFF4F43
:101D300091838083DE01A55BBF4FFE01E55BFF4F12
:101D400080819181019711969C938E93FE01E55BB2
:101D5000FF4F808191810097D1F627C08E01055BEE
:101D60001F4FFE01E35BFF4F608171818281938190
:101D70000E944900DC01CB01F80191838083DE01E0
:101D8000A95BBF4FFE01E55BFF4F808191818D9381
:101D90009C93FE01E95BFF4F808191810197F1F7F0
:101DA000FE01E95BFF4F9183808381E064E041E0C5
:101DB0000E94F20581E065E041E00E94F20581E0C9
:101DC00066E041E00E94F20581E067E041E00E94A8
:101DD000F20581E061E041E00E94F20581E062E00D
:101DE00041E00E94F20581E063E041E00E94F205DB
:101DF00082E00E94DE13FE01ED5BFF4F80E090E089
:101E0000A0E8BFE380839183A283B3838E01015C4A
:101E10001F4FFE01ED5BFF4F6081718182819381D5
:101E200020E030E04AEF54E40E941F02DC01CB01C5
:101E3000F80180839183A283B383FE01FF966081C2
:101E400071818281938120E030E040E85FE30E946D
:101E5000790388232CF481E090E09EAF8DAF46C0DB
:101E6000FE01FF96608171818281938120E03FEFC6
:101E70004FE757E40E941903181664F5FE01ED5B65
:101E8000FF4F608171818281938120E030E040E2E8
:101E900051E40E941F02DC01CB01BC01CD010E9474
:101EA0004900DC01CB019EAF8DAF0FC088EC90E004
:101EB0009CAF8BAF8BAD9CAD0197F1F79CAF8BAF17
:101EC0008DAD9EAD01979EAF8DAF8DAD9EAD009750
:101ED00069F716C0FE01FF9660817181828193814E
:101EE0000E944900DC01CB019EAF8DAF8DAD9EAD50
:101EF0009AAF89AF89AD9AAD0197F1F79AAF89AFE3
:101F000088E20E94DE1380E090E0A0E8BFE38DABA2
:101F10009EABAFABB8AF6DA97EA98FA998AD20E0FD
:101F200030E04AEF54E40E941F02DC01CB0189AB90
:101F30009AABABABBCAB69A97AA98BA99CA920E0F1
:101F400030E040E85FE30E94790388232CF481E0CD
:101F500090E098AB8FA73FC069A97AA98BA99CA9EB
:101F600020E03FEF4FE757E40E94190318164CF5A5
:101F70006DA97EA98FA998AD20E030E040E251E440
:101F80000E941F02DC01CB01BC01CD010E9449006F
:101F9000DC01CB0198AB8FA70FC088EC90E09EA727
:101FA0008DA78DA59EA50197F1F79EA78DA78FA55B
:101FB00098A9019798AB8FA78FA598A9009769F763
:101FC00014C069A97AA98BA99CA90E944900DC01C7
:101FD000CB0198AB8FA78FA598A99CA78BA78BA5A2
:101FE0009CA50197F1F79CA78BA78EE00E94DE13BA
:101FF00080E090E0A0E8BFE38FA398A7A9A7BAA7C5
:102000006FA178A589A59AA520E030E04AEF54E4B5
:102010000E941F02DC01CB018BA39CA3ADA3BEA336
:102020006BA17CA18DA19EA120E030E040E85FE3A0
:102030000E94790388232CF481E090E09AA389A37D
:102040003FC06BA17CA18DA19EA120E03FEF4FE797
:1020500057E40E94190318164CF56FA178A589A5BD
:102060009AA520E030E040E251E40E941F02DC012A
:10207000CB01BC01CD010E944900DC01CB019AA338
:1020800089A30FC088EC90E098A38F8F8F8D98A1C3
:102090000197F1F798A38F8F89A19AA101979AA32D
:1020A00089A389A19AA1009769F714C06BA17CA1AB
:1020B0008DA19EA10E944900DC01CB019AA389A3B6
:1020C00089A19AA19E8F8D8F8D8D9E8D0197F1F79D
:1020D0009E8F8D8F81E00E94DE1380E090E0A0E46F
:1020E000B0E4898F9A8FAB8FBC8F698D7A8D8B8D81
:1020F0009C8D20E030E04AEF54E40E941F02DC0196
:10210000CB018D8B9E8BAF8BB88F6D897E898F892C
:10211000988D20E030E040E85FE30E947903882357
:102120002CF481E090E09C8B8B8B3FC06D897E8985
:102130008F89988D20E03FEF4FE757E40E94190305
:1021400018164CF5698D7A8D8B8D9C8D20E030E0D2
:1021500040E251E40E941F02DC01CB01BC01CD0131
:102160000E944900DC01CB019C8B8B8B0FC088EC5B
:1021700090E09A8B898B89899A890197F1F79A8BDC
:10218000898B8B899C8901979C8B8B8B8B899C89F4
:10219000009769F714C06D897E898F89988D0E9498
:1021A0004900DC01CB019C8B8B8B8B899C89988BA4
:1021B0008F878F8598890197F1F7988B8F8786E0B5
:1021C0000E94DE1380E090E0A0E8BFE38B879C874D
:1021D000AD87BE876B857C858D859E8520E030E050
:1021E0004AEF54E40E941F02DC01CB018F839887E1
:1021F000A987BA876F81788589859A8520E030E044
:1022000040E85FE30E94790388232CF481E090E0AA
:102210009E838D833FC06F81788589859A8520E074
:102220003FEF4FE757E40E94190318164CF56B85F2
:102230007C858D859E8520E030E040E251E40E945F
:102240001F02DC01CB01BC01CD010E944900DC0171
:10225000CB019E838D830FC088EC90E09C838B83A1
:102260008B819C810197F1F79C838B838D819E816B
:1022700001979E838D838D819E81009769F714C09D
:102280006F81788589859A850E944900DC01CB01A0
:102290009E838D838D819E819A83898389819A8192
:1022A0000197F1F79A838983CC5ADF4F0FB6F894E0
:1022B000DEBF0FBECDBFCF91DF911F910F9108956B
:1022C000DF93CF93CDB7DEB7E9970FB6F894DEBFB3
:1022D0000FBECDBF89AF81E061E041E00E94E4061E
:1022E00081E062E040E00E94E40689AD882F90E042
:1022F000807190709595879595958795959587951B
:1023000095958795982F81E064E0492F0E94E40617
:1023100089AD882F90E080729070959587959595FE
:102320008795959587959595879595958795982FF8
:1023300081E065E0492F0E94E40689AD882F90E096
:1023400080749070082E892F000C881F990B000C48
:10235000881F991F982F81E066E0492F0E94E406AC
:1023600089AD982F991F9927991F81E067E0492F20
:102370000E94E40681E063E041E00E94E40680E020
:1023800090E0A0E8BFE38DAB9EABAFABB8AF6DA95B
:102390007EA98FA998AD20E030E04AEF54E40E9476
:1023A0001F02DC01CB0189AB9AABABABBCAB69A91B
:1023B0007AA98BA99CA920E030E040E85FE30E9465
:1023C000790388232CF481E090E098AB8FA73FC07D
:1023D00069A97AA98BA99CA920E03FEF4FE757E4B0
:1023E0000E94190318164CF56DA97EA98FA998AD06
:1023F00020E030E040E251E40E941F02DC01CB010A
:10240000BC01CD010E944900DC01CB0198AB8FA734
:102410000FC088EC90E09EA78DA78DA59EA5019783
:10242000F1F79EA78DA78FA598A9019798AB8FA7C5
:102430008FA598A9009769F714C069A97AA98BA9F3
:102440009CA90E944900DC01CB0198AB8FA78FA506
:1024500098A99CA78BA78BA59CA50197F1F79CA792
:102460008BA781E063E040E00E94E40680E090E01A
:10247000A0E8BFE38FA398A7A9A7BAA76FA178A5E3
:1024800089A59AA520E030E04AEF54E40E941F029B
:10249000DC01CB018BA39CA3ADA3BEA36BA17CA14C
:1024A0008DA19EA120E030E040E85FE30E94790327
:1024B00088232CF481E090E09AA389A33FC06BA10C
:1024C0007CA18DA19EA120E03FEF4FE757E40E9441
:1024D000190318164CF56FA178A589A59AA520E0D7
:1024E00030E040E251E40E941F02DC01CB01BC015C
:1024F000CD010E944900DC01CB019AA389A30FC042
:1025000088EC90E098A38F8F8F8D98A10197F1F7B9
:1025100098A38F8F89A19AA101979AA389A389A1D2
:102520009AA1009769F714C06BA17CA18DA19EA10F
:102530000E944900DC01CB019AA389A389A19AA139
:102540009E8F8D8F8D8D9E8D0197F1F79E8F8D8F34
:1025500081E061E041E00E94E40681E062E040E069
:102560000E94E40689AD982F917081E064E0492FC4
:102570000E94E40689AD882F90E082709070959556
:102580008795982F81E065E0492F0E94E40689AD88
:10259000882F90E084709070959587959595879594
:1025A000982F81E066E0492F0E94E40689AD882FCC
:1025B00090E08870907095958795959587959595FD
:1025C0008795982F81E067E0492F0E94E40681E01B
:1025D00063E041E00E94E40680E090E0A0E8BFE311
:1025E000898F9A8FAB8FBC8F698D7A8D8B8D9C8DE7
:1025F00020E030E04AEF54E40E941F02DC01CB01EE
:102600008D8B9E8BAF8BB88F6D897E898F89988DCE
:1026100020E030E040E85FE30E94790388232CF457
:1026200081E090E09C8B8B8B3FC06D897E898F8988
:10263000988D20E03FEF4FE757E40E9419031816EA
:102640004CF5698D7A8D8B8D9C8D20E030E040E2D9
:1026500051E40E941F02DC01CB01BC01CD010E94AC
:102660004900DC01CB019C8B8B8B0FC088EC90E088
:102670009A8B898B89899A890197F1F79A8B898B33
:102680008B899C8901979C8B8B8B8B899C8900976C
:1026900069F714C06D897E898F89988D0E944900E1
:1026A000DC01CB019C8B8B8B8B899C89988B8F87D2
:1026B0008F8598890197F1F7988B8F8781E063E088
:1026C00040E00E94E40680E090E0A0E8BFE38B8752
:1026D0009C87AD87BE876B857C858D859E8520E038
:1026E00030E04AEF54E40E941F02DC01CB018F83EB
:1026F0009887A987BA876F81788589859A8520E030
:1027000030E040E85FE30E94790388232CF481E005
:1027100090E09E838D833FC06F81788589859A85FF
:1027200020E03FEF4FE757E40E94190318164CF5DD
:102730006B857C858D859E8520E030E040E251E40C
:102740000E941F02DC01CB01BC01CD010E944900A7
:10275000DC01CB019E838D830FC088EC90E09C83CD
:102760008B838B819C810197F1F79C838B838D8177
:102770009E8101979E838D838D819E81009769F74D
:1027800014C06F81788589859A850E944900DC0193
:10279000CB019E838D838D819E819A8389838981DC
:1027A0009A810197F1F79A838983E9960FB6F89495
:1027B000DEBF0FBECDBFCF91DF910895DF93CF93E2
:1027C000CDB7DEB7E9970FB6F894DEBF0FBECDBF29
:1027D00089AF81E061E040E00E94E40681E062E0D0
:1027E00040E00E94E40689AD882F90E080719070EF
:1027F00095958795959587959595879595958795C1
:10280000982F81E064E0492F0E94E40689AD882F6B
:1028100090E08072907095958795959587959595A0
:1028200087959595879595958795982F81E065E093
:10283000492F0E94E40689AD882F90E08074907043
:10284000082E892F000C881F990B000C881F991FD8
:10285000982F81E066E0492F0E94E40689AD982F09
:10286000991F9927991F81E067E0492F0E94E4068C
:1028700081E063E041E00E94E40680E090E0A0E8AF
:10288000BFE38DAB9EABAFABB8AF6DA97EA98FA9EF
:1028900098AD20E030E04AEF54E40E941F02DC01D2
:1028A000CB0189AB9AABABABBCAB69A97AA98BA9BD
:1028B0009CA920E030E040E85FE30E947903882390
:1028C0002CF481E090E098AB8FA73FC069A97AA96A
:1028D0008BA99CA920E03FEF4FE757E40E94190322
:1028E00018164CF56DA97EA98FA998AD20E030E0AF
:1028F00040E251E40E941F02DC01CB01BC01CD018A
:102900000E944900DC01CB0198AB8FA70FC088EC77
:1029100090E09EA78DA78DA59EA50197F1F79EA794
:102920008DA78FA598A9019798AB8FA78FA598A978
:10293000009769F714C069A97AA98BA99CA90E947C
:102940004900DC01CB0198AB8FA78FA598A99CA764
:102950008BA78BA59CA50197F1F79CA78BA781E07E
:1029600063E040E00E94E40680E090E0A0E8BFE37E
:102970008FA398A7A9A7BAA76FA178A589A59AA59B
:1029800020E030E04AEF54E40E941F02DC01CB015A
:102990008BA39CA3ADA3BEA36BA17CA18DA19EA183
:1029A00020E030E040E85FE30E94790388232CF4C4
:1029B00081E090E09AA389A33FC06BA17CA18DA187
:1029C0009EA120E03FEF4FE757E40E94190318163D
:1029D0004CF56FA178A589A59AA520E030E040E2EA
:1029E00051E40E941F02DC01CB01BC01CD010E9419
:1029F0004900DC01CB019AA389A30FC088EC90E0C9
:102A000098A38F8F8F8D98A10197F1F798A38F8F3F
:102A100089A19AA101979AA389A389A19AA1009754
:102A200069F714C06BA17CA18DA19EA10E944900F1
:102A3000DC01CB019AA389A389A19AA19E8F8D8FD6
:102A40008D8D9E8D0197F1F79E8F8D8F81E061E0D6
:102A500040E00E94E40681E062E040E00E94E4067B
:102A600089AD982F917081E064E0492F0E94E406BF
:102A700089AD882F90E08270907095958795982FFA
:102A800081E065E0492F0E94E40689AD882F90E03F
:102A9000847090709595879595958795982F81E08E
:102AA00066E0492F0E94E40689AD882F90E0887087
:102AB0009070959587959595879595958795982F7D
:102AC00081E067E0492F0E94E40681E063E041E095
:102AD0000E94E40680E090E0A0E8BFE3898F9A8F2F
:102AE000AB8FBC8F698D7A8D8B8D9C8D20E030E013
:102AF0004AEF54E40E941F02DC01CB018D8B9E8BB8
:102B0000AF8BB88F6D897E898F89988D20E030E0FA
:102B100040E85FE30E94790388232CF481E090E091
:102B20009C8B8B8B3FC06D897E898F89988D20E02F
:102B30003FEF4FE757E40E94190318164CF5698DD3
:102B40007A8D8B8D9C8D20E030E040E251E40E9434
:102B50001F02DC01CB01BC01CD010E944900DC0158
:102B6000CB019C8B8B8B0FC088EC90E09A8B898B70
:102B700089899A890197F1F79A8B898B8B899C892E
:102B800001979C8B8B8B8B899C89009769F714C06C
:102B90006D897E898F89988D0E944900DC01CB0167
:102BA0009C8B8B8B8B899C89988B8F878F85988941
:102BB0000197F1F7988B8F8781E063E040E00E94F6
:102BC000E40680E090E0A0E8BFE38B879C87AD87B8
:102BD000BE876B857C858D859E8520E030E04AEF41
:102BE00054E40E941F02DC01CB018F839887A987E0
:102BF000BA876F81788589859A8520E030E040E842
:102C00005FE30E94790388232CF481E090E09E83A7
:102C10008D833FC06F81788589859A8520E03FEF5D
:102C20004FE757E40E94190318164CF56B857C8515
:102C30008D859E8520E030E040E251E40E941F0235
:102C4000DC01CB01BC01CD010E944900DC01CB01BC
:102C50009E838D830FC088EC90E09C838B838B8157
:102C60009C810197F1F79C838B838D819E810197D5
:102C70009E838D838D819E81009769F714C06F813B
:102C8000788589859A850E944900DC01CB019E8365
:102C90008D838D819E819A83898389819A81019711
:102CA000F1F79A838983E9960FB6F894DEBF0FBED9
:102CB000CDBFCF91DF910895DF93CF9300D00F92D6
:102CC000CDB7DEB79B838A8319820EC08981282FF6
:102CD00030E08A819B81FC01E20FF31F80810E941A
:102CE000601189818F5F89838981282F30E08A81F3
:102CF0009B81FC01E20FF31F8081882339F70F903D
:102D00000F900F90CF91DF910895DF93CF93CDB7C0
:102D1000DEB72E970FB6F894DEBF0FBECDBF81E0B1
:102D20000E94DE1380E090E0A0E4B0E48B879C87F3
:102D3000AD87BE876B857C858D859E8520E030E0E4
:102D40004AEF54E40E941F02DC01CB018F83988775
:102D5000A987BA876F81788589859A8520E030E0D8
:102D600040E85FE30E94790388232CF481E090E03F
:102D70009E838D833FC06F81788589859A8520E009
:102D80003FEF4FE757E40E94190318164CF56B8587
:102D90007C858D859E8520E030E040E251E40E94F4
:102DA0001F02DC01CB01BC01CD010E944900DC0106
:102DB000CB019E838D830FC088EC90E09C838B8336
:102DC0008B819C810197F1F79C838B838D819E8100
:102DD00001979E838D838D819E81009769F714C032
:102DE0006F81788589859A850E944900DC01CB0135
:102DF0009E838D838D819E819A83898389819A8127
:102E00000197F1F79A8389832E960FB6F894DEBF67
:102E10000FBECDBFCF91DF910895DF93CF93CDB794
:102E2000DEB72E970FB6F894DEBF0FBECDBF88E198
:102E30000E94DE1380E090E0A0E8BFE38B879C87D0
:102E4000AD87BE876B857C858D859E8520E030E0D3
:102E50004AEF54E40E941F02DC01CB018F83988764
:102E6000A987BA876F81788589859A8520E030E0C7
:102E700040E85FE30E94790388232CF481E090E02E
:102E80009E838D833FC06F81788589859A8520E0F8
:102E90003FEF4FE757E40E94190318164CF56B8576
:102EA0007C858D859E8520E030E040E251E40E94E3
:102EB0001F02DC01CB01BC01CD010E944900DC01F5
:102EC000CB019E838D830FC088EC90E09C838B8325
:102ED0008B819C810197F1F79C838B838D819E81EF
:102EE00001979E838D838D819E81009769F714C021
:102EF0006F81788589859A850E944900DC01CB0124
:102F00009E838D838D819E819A83898389819A8115
:102F10000197F1F79A8389832E960FB6F894DEBF56
:102F20000FBECDBFCF91DF910895DF93CF93CDB783
:102F3000DEB72E970FB6F894DEBF0FBECDBF8CE183
:102F40000E94DE1380E090E0A0E8BFE38B879C87BF
:102F5000AD87BE876B857C858D859E8520E030E0C2
:102F60004AEF54E40E941F02DC01CB018F83988753
:102F7000A987BA876F81788589859A8520E030E0B6
:102F800040E85FE30E94790388232CF481E090E01D
:102F90009E838D833FC06F81788589859A8520E0E7
:102FA0003FEF4FE757E40E94190318164CF56B8565
:102FB0007C858D859E8520E030E040E251E40E94D2
:102FC0001F02DC01CB01BC01CD010E944900DC01E4
:102FD000CB019E838D830FC088EC90E09C838B8314
:102FE0008B819C810197F1F79C838B838D819E81DE
:102FF00001979E838D838D819E81009769F714C010
:103000006F81788589859A850E944900DC01CB0112
:103010009E838D838D819E819A83898389819A8104
:103020000197F1F79A8389832E960FB6F894DEBF45
:103030000FBECDBFCF91DF910895DF93CF9300D026
:103040000F92CDB7DEB78A836B838A81882319F408
:103050008B81898306C08A81813019F48B81805CE1
:103060008983898180580E94DE130F900F900F9002
:10307000CF91DF910895DF93CF93CDB7DEB7279738
:103080000FB6F894DEBF0FBECDBF9C838B836D83DC
:103090004E832F838D81882F90E00896880F991F8B
:1030A000880F991F880F991F898389810E94DE13D9
:1030B0001A820EC08A81282F30E08B819C81FC010E
:1030C000E20FF31F80810E9460118A818F5F8A83E3
:1030D0008A81883078F38E816F810E941D188D81DE
:1030E0000E94601127960FB6F894DEBF0FBECDBFC9
:1030F000CF91DF910895DF93CF930F92CDB7DEB7D5
:103100008983898160EF0E94FE0889816FEF0E94A8
:103110003F090F90CF91DF910895DF93CF93CDB703
:10312000DEB7A0970FB6F894DEBF0FBECDBF8F8F6E
:103130001D8E2FC18D8D982F9C5F8F8D692F40E044
:103140000E94E4061E8E16C18F8D6E8D0E9453085C
:10315000882309F00CC180E090E0A0EAB1E4898FF7
:103160009A8FAB8FBC8F698D7A8D8B8D9C8D20E073
:1031700030E04AEF54E40E941F02DC01CB018D8B4A
:103180009E8BAF8BB88F6D897E898F89988D20E05B
:1031900030E040E85FE30E94790388232CF481E06B
:1031A00090E09C8B8B8B3FC06D897E898F89988D39
:1031B00020E03FEF4FE757E40E94190318164CF543
:1031C000698D7A8D8B8D9C8D20E030E040E251E45A
:1031D0000E941F02DC01CB01BC01CD010E9449000D
:1031E000DC01CB019C8B8B8B0FC088EC90E09A8B21
:1031F000898B89899A890197F1F79A8B898B8B89B9
:103200009C8901979C8B8B8B8B899C89009769F794
:1032100014C06D897E898F89988D0E944900DC01D8
:10322000CB019C8B8B8B8B899C89988B8F878F850F
:1032300098890197F1F7988B8F878F8D6E8D0E94FB
:103240005308882309F093C08F8D6E8D0E94530818
:103250008823D1F380E090E0A0EAB1E48B879C87DB
:10326000AD87BE876B857C858D859E8520E030E0AF
:103270004AEF54E40E941F02DC01CB018F83988740
:10328000A987BA876F81788589859A8520E030E0A3
:1032900040E85FE30E94790388232CF481E090E00A
:1032A0009E838D833FC06F81788589859A8520E0D4
:1032B0003FEF4FE757E40E94190318164CF56B8552
:1032C0007C858D859E8520E030E040E251E40E94BF
:1032D0001F02DC01CB01BC01CD010E944900DC01D1
:1032E000CB019E838D830FC088EC90E09C838B8301
:1032F0008B819C810197F1F79C838B838D819E81CB
:1033000001979E838D838D819E81009769F714C0FC
:103310006F81788589859A850E944900DC01CB01FF
:103320009E838D838D819E819A83898389819A81F1
:103330000197F1F79A8389838D8D982F9C5F8F8DEC
:10334000692F41E00E94E4068E8D282F30E08D8D9C
:10335000482F50E0C901880F991F820F931F840FD7
:10336000951FFC01E551FF4F808188A318C08E8D09
:103370008F5F8E8F8E8D843008F4E6CE8D8D982FE2
:103380009C5F8F8D692F41E00E94E4068D8D8F5FD9
:103390008D8F8D8D833008F4CDCE8FEF88A388A1DB
:1033A000A0960FB6F894DEBF0FBECDBFCF91DF91D0
:1033B0000895DF93CF9300D000D0CDB7DEB78983D7
:1033C0006A834B832C8389816A8141E00E94F205E4
:1033D0008B816C8141E00E94F2050F900F900F905D
:1033E0000F90CF91DF910895DF93CF9300D000D05D
:1033F000CDB7DEB789836A834B832C8389816A8149
:1034000041E00E94E4068B816C8140E00E94E4066A
:103410000F900F900F900F90CF91DF910895DF9351
:10342000CF9300D000D0CDB7DEB789836A834B83BA
:103430002C8389816A8140E00E94E4068B816C8143
:1034400041E00E94E4060F900F900F900F90CF91F3
:10345000DF910895DF93CF9300D000D0CDB7DEB7D2
:1034600089836A834B832C8389816A8140E00E942F
:10347000E4068B816C8140E00E94E4060F900F907F
:103480000F900F90CF91DF910895DF93CF9300D0ED
:10349000CDB7DEB789836A8389816A8141E00E9462
:1034A000F2050F900F90CF91DF910895DF93CF93A6
:1034B00000D0CDB7DEB789836A8389816A8141E014
:1034C0000E94E4060F900F90CF91DF910895DF9353
:1034D000CF9300D0CDB7DEB789836A8389816A81B3
:1034E00040E00E94E4060F900F90CF91DF91089585
:1034F000DF93CF9300D0CDB7DEB789836A8389810C
:103500006A810E94D6070F900F90CF91DF910895A6
:10351000DF93CF93CDB7DEB70E94851680E060E0E1
:103520000E941D188091F800882329F080E690E021
:103530000E945C1604C089E690E00E945C1680E060
:1035400069E00E941D188091F900882329F082E724
:1035500090E00E945C1604C08BE790E00E945C162D
:1035600081E060E00E941D188091FA00882329F014
:1035700084E890E00E945C1604C08DE890E00E9410
:103580005C1681E069E00E941D188091FB00882391
:1035900029F086E990E00E945C1604C08FE990E073
:1035A0000E945C16CF91DF910895DF93CF93CDB742
:1035B000DEB72E970FB6F894DEBF0FBECDBF83E007
:1035C00066E00E94561A80E090E0A8E4B2E48B879F
:1035D0009C87AD87BE876B857C858D859E8520E029
:1035E00030E04AEF54E40E941F02DC01CB018F83DC
:1035F0009887A987BA876F81788589859A8520E021
:1036000030E040E85FE30E94790388232CF481E0F6
:1036100090E09E838D833FC06F81788589859A85F0
:1036200020E03FEF4FE757E40E94190318164CF5CE
:103630006B857C858D859E8520E030E040E251E4FD
:103640000E941F02DC01CB01BC01CD010E94490098
:10365000DC01CB019E838D830FC088EC90E09C83BE
:103660008B838B819C810197F1F79C838B838D8168
:103670009E8101979E838D838D819E81009769F73E
:1036800014C06F81788589859A850E944900DC0184
:10369000CB019E838D838D819E819A8389838981CD
:1036A0009A810197F1F79A83898383E066E00E940B
:1036B000671A2E960FB6F894DEBF0FBECDBFCF911E
:1036C000DF9108950F931F93DF93CF93CDB7DEB7AC
:1036D000CF58D0400FB6F894DEBF0FBECDBF0E94CA
:1036E000150E85E061E00E940C0A82E00E947B18C2
:1036F00083E062E00E94D20D83E063E00E94D20D7D
:1037000083E064E00E94D20D83E065E00E94D20D68
:1037100080E061E00E94A70C80E062E00E94A70CBC
:1037200080E063E00E94A70C80E064E00E94A70CA8
:1037300083E060E043E021E00E94D91983E066E085
:103740000E94451AFE01E957FF4F108280E090E089
:103750000E94D6058F3FA1F480E090E061E30E94D3
:10376000A30581E090E062E30E94A30582E090E07F
:1037700063E30E94A30583E090E064E30E94A30555
:1037800080E090E00E94D605FE01E857FF4F80835D
:1037900081E090E00E94D605FE01E857FF4F81834B
:1037A00082E090E00E94D605FE01E857FF4F828339
:1037B00083E090E00E94D605FE01E857FF4F838327
:1037C000FBC30E94851680E060E00E941D1888EA15
:1037D00090E00E945C1681E060E00E941D18FE01EE
:1037E000EA57FF4F8FEF8083FE01EB57FF4F1082A8
:1037F000E4C082E00E948D18FE01EA57FF4F8083EB
:10380000FE01EA57FF4F80818F3F09F4D6C0FE01C9
:10381000EB57FF4F8081282F30E0CE0184579F4F18
:10382000DC01A20FB31FFE01EA57FF4F80818C938A
:103830008AE20E946011DE01AB57BF4FFE01EB57D9
:10384000FF4F80818F5F8C9382E00E948D188F3FA5
:10385000D9F7FE01E558FF4F80E090E0A8E4B2E41C
:1038600080839183A283B3838E0109581F4FFE0189
:10387000E558FF4F608171818281938120E030E0C3
:103880004AEF54E40E941F02DC01CB01F80180835F
:103890009183A283B383FE01E958FF4F6081718158
:1038A0008281938120E030E040E85FE30E94790369
:1038B000882344F4FE01EB58FF4F81E090E09183B0
:1038C000808364C0FE01E958FF4F6081718182816D
:1038D000938120E03FEF4FE757E40E941903181649
:1038E0000CF043C0FE01E558FF4F60817181828179
:1038F000938120E030E040E251E40E941F02DC01AD
:10390000CB018E010B581F4FBC01CD010E94490015
:10391000DC01CB01F801918380831FC0FE01ED58CB
:10392000FF4F88EC90E091838083FE01ED58FF4FBC
:10393000808191810197F1F7FE01ED58FF4F91834E
:103940008083DE01AB58BF4FFE01EB58FF4F8081F3
:103950009181019711969C938E93FE01EB58FF4F36
:10396000808191810097D1F628C08E010B581F4F9E
:10397000FE01E958FF4F60817181828193810E942D
:103980004900DC01CB01F80191838083DE01AF584F
:10399000BF4FFE01EB58FF4F8081918111969C93A0
:1039A0008E93FE01EF58FF4F808191810197F1F7CF
:1039B000FE01EF58FF4F91838083FE01EB57FF4FCD
:1039C0008081843008F415CFFE01E359FF4F80E079
:1039D00090E0A6E9B3E480839183A283B3838E0150
:1039E00007591F4FFE01E359FF4F608171818281AA
:1039F000938120E030E04AEF54E40E941F02DC0192
:103A0000CB01F80180839183A283B383FE01E75940
:103A1000FF4F608171818281938120E030E040E836
:103A20005FE30E947903882344F4FE01E959FF4FC4
:103A300081E090E09183808364C0FE01E759FF4FED
:103A4000608171818281938120E03FEF4FE757E4ED
:103A50000E94190318160CF043C0FE01E359FF4FF2
:103A6000608171818281938120E030E040E251E405
:103A70000E941F02DC01CB018E0109591F4FBC01BE
:103A8000CD010E944900DC01CB01F80191838083C4
:103A90001FC0FE01EB59FF4F88EC90E091838083BB
:103AA000FE01EB59FF4F808191810197F1F7FE01F3
:103AB000EB59FF4F91838083DE01A959BF4FFE016F
:103AC000E959FF4F80819181019711969C938E93C4
:103AD000FE01E959FF4F808191810097D1F628C0FE
:103AE0008E0109591F4FFE01E759FF4F6081718117
:103AF000828193810E944900DC01CB01F80191830E
:103B00008083DE01AD59BF4FFE01E959FF4F80812F
:103B1000918111969C938E93FE01ED59FF4F808108
:103B200091810197F1F7FE01ED59FF4F9183808359
:103B3000FE01E457FF4F9081FE01E857FF4F80815F
:103B4000981709F0A6C1FE01E457FF4F9181FE01CD
:103B5000E857FF4F8181981709F09BC1FE01E45798
:103B6000FF4F9281FE01E857FF4F8281981709F0BD
:103B700090C1FE01E457FF4F9381FE01E857FF4FCC
:103B80008381981709F085C10E94851688EB90E023
:103B90000E945C16FE01E15AFF4F80E090E0AAE728
:103BA000B4E480839183A283B3838E01055A1F4FAF
:103BB000FE01E15AFF4F608171818281938120E093
:103BC00030E04AEF54E40E941F02DC01CB01F8010F
:103BD00080839183A283B383FE01E55AFF4F608106
:103BE00071818281938120E030E040E85FE30E94B0
:103BF0007903882344F4FE01E75AFF4F81E090E007
:103C00009183808364C0FE01E55AFF4F608171811A
:103C10008281938120E03FEF4FE757E40E94190330
:103C200018160CF043C0FE01E15AFF4F608171810C
:103C30008281938120E030E040E251E40E941F0243
:103C4000DC01CB018E01075A1F4FBC01CD010E9440
:103C50004900DC01CB01F801918380831FC0FE0184
:103C6000E95AFF4F88EC90E091838083FE01E95A86
:103C7000FF4F808191810197F1F7FE01E95AFF4FD3
:103C800091838083DE01A75ABF4FFE01E75AFF4FA1
:103C900080819181019711969C938E93FE01E75A42
:103CA000FF4F808191810097D1F627C08E01075A7E
:103CB0001F4FFE01E55AFF4F608171818281938120
:103CC0000E944900DC01CB01F80191838083DE0171
:103CD000AB5ABF4FFE01E75AFF4F808191818D9310
:103CE0009C93FE01EB5AFF4F808191810197F1F780
:103CF000FE01EB5AFF4F918380830E94851680E07E
:103D000060E00E941D1885EC90E00E945C1681E046
:103D100060E00E941D1880ED90E00E945C16FE019C
:103D2000EF5AFF4F80E090E8ABEBB4E480839183DF
:103D3000A283B3838E01035B1F4FFE01EF5AFF4F37
:103D4000608171818281938120E030E04AEF54E408
:103D50000E941F02DC01CB01F80180839183A283C2
:103D6000B383FE01E35BFF4F6081718182819381A8
:103D700020E030E040E85FE30E947903882344F4C8
:103D8000FE01E55BFF4F81E090E09183808364C09A
:103D9000FE01E35BFF4F608171818281938120E0AE
:103DA0003FEF4FE757E40E94190318160CF043C089
:103DB000FE01EF5AFF4F608171818281938120E083
:103DC00030E040E251E40E941F02DC01CB018E0191
:103DD000055B1F4FBC01CD010E944900DC01CB01F6
:103DE000F801918380831FC0FE01E75BFF4F88ECE1
:103DF00090E091838083FE01E75BFF4F808191819A
:103E00000197F1F7FE01E75BFF4F91838083DE01AD
:103E1000A55BBF4FFE01E55BFF4F8081918101975C
:103E200011969C938E93FE01E55BFF4F80819181FB
:103E30000097D1F628C08E01055B1F4FFE01E35BA2
:103E4000FF4F60817181828193810E944900DC0172
:103E5000CB01F80191838083DE01A95BBF4FFE0196
:103E6000E55BFF4F8081918111969C938E93FE01BB
:103E7000E95BFF4F808191810197F1F7FE01E95BDA
:103E8000FF4F91838083FE01E957FF4F81E08083DC
:103E900093C00E94851688ED90E00E945C1683E036
:103EA00066E00E94561AFE01ED5BFF4F80E090E055
:103EB000AAE7B4E480839183A283B3838E01015C7B
:103EC0001F4FFE01ED5BFF4F608171818281938105
:103ED00020E030E04AEF54E40E941F02DC01CB01F5
:103EE000F80180839183A283B383FE01FF966081F2
:103EF00071818281938120E030E040E85FE30E949D
:103F0000790388232CF481E090E09EAF8DAF46C00A
:103F1000FE01FF96608171818281938120E03FEFF5
:103F20004FE757E40E941903181664F5FE01ED5B94
:103F3000FF4F608171818281938120E030E040E217
:103F400051E40E941F02DC01CB01BC01CD010E94A3
:103F50004900DC01CB019EAF8DAF0FC088EC90E033
:103F60009CAF8BAF8BAD9CAD0197F1F79CAF8BAF46
:103F70008DAD9EAD01979EAF8DAF8DAD9EAD00977F
:103F800069F716C0FE01FF9660817181828193817D
:103F90000E944900DC01CB019EAF8DAF8DAD9EAD7F
:103FA0009AAF89AF89AD9AAD0197F1F79AAF89AF12
:103FB00083E066E00E94671AFE01E957FF4F8081A7
:103FC000882309F4FECB0E94881A80E061E00E94F9
:103FD000BD0C882309F086C08091F80091E0892704
:103FE0008093F80083E062E00E94050E0E94881A28
:103FF0000E94D51A80E061E00E94BD0C8823D1F3B5
:1040000080E090E0A8E4B2E48DAB9EABAFABB8AF7C
:104010006DA97EA98FA998AD20E030E04AEF54E465
:104020000E941F02DC01CB0189AB9AABABABBCABEE
:1040300069A97AA98BA99CA920E030E040E85FE358
:104040000E94790388232CF481E090E098AB8FA73D
:104050003FC069A97AA98BA99CA920E03FEF4FE74F
:1040600057E40E94190318164CF56DA97EA98FA973
:1040700098AD20E030E040E251E40E941F02DC01F4
:10408000CB01BC01CD010E944900DC01CB0198AB02
:104090008FA70FC088EC90E09EA78DA78DA59EA549
:1040A0000197F1F79EA78DA78FA598A9019798ABC7
:1040B0008FA78FA598A9009769F714C069A97AA955
:1040C0008BA99CA90E944900DC01CB0198AB8FA76A
:1040D0008FA598A99CA78BA78BA59CA50197F1F705
:1040E0009CA78BA780E062E00E94BD0C882309F0AA
:1040F00086C08091F90091E089278093F90083E0E0
:1041000063E00E94050E0E94881A0E94D51A80E082
:1041100062E00E94BD0C8823D1F380E090E0A8E427
:10412000B2E48FA398A7A9A7BAA76FA178A589A57C
:104130009AA520E030E04AEF54E40E941F02DC011F
:10414000CB018BA39CA3ADA3BEA36BA17CA18DA12E
:104150009EA120E030E040E85FE30E9479038823DD
:104160002CF481E090E09AA389A33FC06BA17CA1CD
:104170008DA19EA120E03FEF4FE757E40E94190375
:1041800018164CF56FA178A589A59AA520E030E016
:1041900040E251E40E941F02DC01CB01BC01CD01D1
:1041A0000E944900DC01CB019AA389A30FC088ECCF
:1041B00090E098A38F8F8F8D98A10197F1F798A326
:1041C0008F8F89A19AA101979AA389A389A19AA106
:1041D000009769F714C06BA17CA18DA19EA10E94DC
:1041E0004900DC01CB019AA389A389A19AA19E8FE2
:1041F0008D8F8D8D9E8D0197F1F79E8F8D8F80E035
:1042000063E00E94BD0C882309F086C08091FA000B
:1042100091E089278093FA0083E064E00E94050E14
:104220000E94881A0E94D51A80E063E00E94BD0CAB
:104230008823D1F380E090E0A8E4B2E4898F9A8FDC
:10424000AB8FBC8F698D7A8D8B8D9C8D20E030E09B
:104250004AEF54E40E941F02DC01CB018D8B9E8B40
:10426000AF8BB88F6D897E898F89988D20E030E083
:1042700040E85FE30E94790388232CF481E090E01A
:104280009C8B8B8B3FC06D897E898F89988D20E0B8
:104290003FEF4FE757E40E94190318164CF5698D5C
:1042A0007A8D8B8D9C8D20E030E040E251E40E94BD
:1042B0001F02DC01CB01BC01CD010E944900DC01E1
:1042C000CB019C8B8B8B0FC088EC90E09A8B898BF9
:1042D00089899A890197F1F79A8B898B8B899C89B7
:1042E00001979C8B8B8B8B899C89009769F714C0F5
:1042F0006D897E898F89988D0E944900DC01CB01F0
:104300009C8B8B8B8B899C89988B8F878F859889C9
:104310000197F1F7988B8F8780E064E00E94BD0CD5
:10432000882309F086C08091FB0091E08927809363
:10433000FB0083E065E00E94050E0E94881A0E943F
:10434000D51A80E064E00E94BD0C8823D1F380E0A0
:1043500090E0A8E4B2E48B879C87AD87BE876B852D
:104360007C858D859E8520E030E04AEF54E40E94F4
:104370001F02DC01CB018F839887A987BA876F81E1
:10438000788589859A8520E030E040E85FE30E94E7
:10439000790388232CF481E090E09E838D833FC0D5
:1043A0006F81788589859A8520E03FEF4FE757E454
:1043B0000E94190318164CF56B857C858D859E85AA
:1043C00020E030E040E251E40E941F02DC01CB011A
:1043D000BC01CD010E944900DC01CB019E838D838D
:1043E0000FC088EC90E09C838B838B819C8101972C
:1043F000F1F79C838B838D819E8101979E838D83B2
:104400008D819E81009769F714C06F8178858985B9
:104410009A850E944900DC01CB019E838D838D81AA
:104420009E819A83898389819A810197F1F79A8382
:1044300089838091FB00813009F046C080E00E94B2
:104440003E0B0E94450CFE01ED57FF4F9183808388
:10445000FE01ED57FF4F80819181CC01A0E0B0E0DB
:1044600024EF31E040E050E0BC01CD010E946B221E
:10447000DC01CB01FE01E158FF4F072E7AE0B69533
:10448000A795979587957A95D1F7702D808391831D
:10449000A283B383FE01E158FF4F80819181A28105
:1044A000B3818A319105A105B10538F083E060E060
:1044B00043E021E00E940F1A88CD83E060E043E0F2
:1044C00021E00E94F41981CD83E060E043E021E027
:1044D0000E942A1A7ACD629FD001739FF001829FB9
:1044E000E00DF11D649FE00DF11D929FF00D839F83
:1044F000F00D749FF00D659FF00D9927729FB00D20
:10450000E11DF91F639FB00DE11DF91FBD01CF0132
:10451000112408952F923F924F925F926F927F9253
:104520008F929F92AF92BF92CF92DF92EF92FF92C3
:104530000F931F93CF93DF93CDB7DEB7CA1BDB0B6F
:104540000FB6F894DEBF0FBECDBF09942A88398814
:1045500048885F846E847D848C849B84AA84B9841B
:10456000C884DF80EE80FD800C811B81AA81B98127
:10457000CE0FD11D0FB6F894DEBF0FBECDBFED013B
:064580000895F894FFCF3E
:104586004C4544313A4F4E20004C4544313A4F4653
:1045960046004C4544323A4F4E20004C4544323A90
:1045A6004F464600545620203A4F4E20005456207F
:1045B600203A4F464600414320203A4F4E200041C4
:1045C6004320203A4F464600456E7465722050617E
:1045D6007373776F72643A00436F72726563742007
:1045E6005061737300536D61727420486F6D65007E
:1045F60050726F6A6563740057726F6E6720506100
:1046060073730000000000000000003132333435BF
:08461600363738392A30230041
:00000001FF
