:100000000C942A000C9447000C9447000C94470071
:100010000C9447000C9447000C9447000C94470044
:100020000C9447000C9447000C9447000C94470034
:100030000C9447000C9447000C9447000C94470024
:100040000C9468020C9447000C9447000C944700F1
:100050000C94470011241FBECFE5D8E0DEBFCDBF12
:1000600010E0A0E6B0E0E8EFFEE002C005900D92DF
:10007000A03FB107D9F710E0A0EFB0E001C01D929A
:10008000A63FB107E1F70E94AD050C947A070C94E6
:1000900000009FBB8EBB6DBBE29AE19AE199FECF57
:1000A00008959FBB8EBBE09A8DB30895813029F1EE
:1000B000813038F0823009F43CC0833009F06EC0E2
:1000C00053C0442361F42AB381E090E002C0880F5A
:1000D000991F6A95E2F7809582238ABB0895413083
:1000E00009F05CC02AB381E090E002C0880F991F3C
:1000F0006A95E2F7282B2ABB0895442361F427B3BD
:1001000081E090E002C0880F991F6A95E2F7809520
:10011000822387BB0895413009F040C027B381E0B6
:1001200090E002C0880F991F6A95E2F7282B27BB41
:100130000895442361F424B381E090E002C0880F65
:10014000991F6A95E2F78095822384BB0895413018
:1001500029F524B381E090E002C0880F991F6A95C9
:10016000E2F7282B24BB0895442361F421B381E0F6
:1001700090E002C0880F991F6A95E2F7809582236C
:1001800081BB0895413051F421B381E090E002C079
:10019000880F991F6A95E2F7282B21BB08958130BB
:1001A00029F1813038F0823009F43CC0833009F005
:1001B0006EC053C0442361F42BB381E090E002C0D1
:1001C000880F991F6A95E2F7809582238BBB08956B
:1001D000413009F05CC02BB381E090E002C0880F91
:1001E000991F6A95E2F7282B2BBB0895442361F4ED
:1001F00028B381E090E002C0880F991F6A95E2F76A
:100200008095822388BB0895413009F040C028B30F
:1002100081E090E002C0880F991F6A95E2F7282BD1
:1002200028BB0895442361F425B381E090E002C027
:10023000880F991F6A95E2F78095822385BB089500
:10024000413029F525B381E090E002C0880F991F65
:100250006A95E2F7282B25BB0895442361F422B365
:1002600081E090E002C0880F991F6A95E2F78095BF
:10027000822382BB0895413051F422B381E090E0A3
:1002800002C0880F991F6A95E2F7282B22BB0895B8
:10029000813091F0813028F08230C9F0833061F5EF
:1002A00021C02BB381E090E002C0880F991F6A95AE
:1002B000E2F728272BBB089528B381E090E002C025
:1002C000880F991F6A95E2F7282728BB089525B360
:1002D00081E090E002C0880F991F6A95E2F7282715
:1002E00025BB089522B381E090E002C0880F991FDA
:1002F0006A95E2F7282722BB0895813049F08130C2
:1003000028F0823039F0833041F516C029B303C09C
:1003100026B301C023B381E090E0062E02C0880F0F
:10032000991F0A94E2F730E08223932302C0959547
:1003300087956A95E2F7089520B381E090E0062E54
:1003400002C0880F991F0A94E2F730E082239323BA
:1003500002C0959587956A95E2F70895813049F036
:10036000813028F0823039F0833041F406C06ABB16
:10037000089567BB089564BB089561BB08958130FB
:1003800049F0813028F0823039F0833041F406C0E2
:100390006BBB089568BB089565BB089562BB089563
:1003A000813059F0813028F0823059F0833081F467
:1003B0000CC08BB380958BBB089588B3809588BBA8
:1003C000089585B3809585BB089582B3809582BBDF
:1003D0000895813049F0813028F0823039F083303F
:1003E00041F406C089B3089586B3089583B3089590
:1003F00080B30895613039F0613018F0623041F413
:1004000005C03E9801C03E9A3F9802C03E9A3F9A6E
:10041000379A8330B9F0843028F4813069F0823023
:1004200068F407C0853099F0853070F08630B1F4FB
:1004300012C03098319804C0309801C0309A319A77
:1004400032980895309801C0309A319802C030989F
:10045000319A329A0895309A319A329A08958330B7
:10046000C1F0843028F4813071F0823080F409C00A
:100470008530A1F0853080F0863099F08730B1F476
:1004800012C0389801C0389A39983A980FC03898F5
:1004900001C0389A399AF9CF389801C0389A3998FA
:1004A00004C0389801C0389A399A3A9A369A089511
:1004B00024B135B1C9010895349BFECF349A24B1DB
:1004C00035B1C90108959093F5008093F400089523
:1004D0001F920F920FB60F9211242F933F934F93B9
:1004E0005F936F937F938F939F93AF93BF93EF939C
:1004F000FF93E091F400F091F5000995FF91EF91E1
:10050000BF91AF919F918F917F916F915F914F912B
:100510003F912F910F900FBE0F901F9018950F9342
:100520001F93082F162F0E947D018823B1F480E4C9
:100530009CE90197F1F7802F612F0E947D018823AC
:1005400061F4802F612F0E947D018823D1F380E424
:100550009CE90197F1F780E001C081E01F910F91C4
:1005600008950F931F93182F062F40E00E94560006
:10057000812F602F41E00E94CF001F910F910895BD
:100580000E944801089540E00E94CF00089541E094
:100590000E94CF00089541E00E9456000895DF9226
:1005A000EF92FF920F931F93D82E81E061E040E01D
:1005B0000E94CF0081E062E040E00E94CF000D2D5C
:1005C00010E0A80140715070E4E055954795EA9518
:1005D000E1F781E064E00E94CF00A8014072507012
:1005E00075E0559547957A95E1F781E065E00E94C1
:1005F000CF00A8014074507066E0559547956A9504
:10060000E1F781E066E00E94CF004D2D441F4427B2
:10061000441F81E067E00E94CF0081E063E041E099
:100620000E94CF0030EDE32E37E0F32EC701019793
:10063000F1F781E063E040E00E94CF00C70101973D
:10064000F1F781E061E040E00E94CF0081E062E0EC
:1006500040E00E94CF0081E0D82264E04D2D0E944E
:10066000CF00A801427050705595479581E065E034
:100670000E94CF00A801447050705595479555953C
:10068000479581E066E00E94CF000870107083E01B
:10069000159507958A95E1F781E067E0402F0E9464
:1006A000CF0081E063E041E00E94CF00C7010197E5
:1006B000F1F781E063E040E00E94CF00C7010197BD
:1006C000F1F71F910F91FF90EF90DF90089588232D
:1006D00019F0813009F4605C862F80580E94CF02A7
:1006E00008958CE10E94CF0280ED97E00197F1F729
:1006F000089588E10E94CF0280ED97E00197F1F71D
:10070000089581E00E94CF0280E797E10197F1F719
:100710000895DF92EF92FF920F931F93D82E81E0FE
:1007200061E041E00E94CF0081E062E040E00E9491
:10073000CF000D2D10E0A8014071507034E05595A8
:1007400047953A95E1F781E064E00E94CF00A80167
:100750004072507025E0559547952A95E1F781E064
:1007600065E00E94CF00A8014074507096E0559556
:1007700047959A95E1F781E066E00E94CF004D2D04
:10078000441F4427441F81E067E00E94CF0081E0BE
:1007900063E041E00E94CF0080EDE82E87E0F82E74
:1007A000C7010197F1F781E063E040E00E94CF00CC
:1007B000C7010197F1F781E061E041E00E94CF00BD
:1007C00081E062E040E00E94CF0081E0D82264E056
:1007D0004D2D0E94CF00A80142705070559547954D
:1007E00081E065E00E94CF00A801447050705595EB
:1007F00047955595479581E066E00E94CF000870C7
:100800001070F3E015950795FA95E1F781E067E040
:10081000402F0E94CF0081E063E041E00E94CF00C2
:10082000C7010197F1F781E063E040E00E94CF004B
:10083000C7010197F1F71F910F91FF90EF90DF90A3
:100840000895DF92EF92FF920F931F93CF93DF9360
:100850008C01F62EE42ED22E862F880F880F880F5B
:10086000805C0E94CF02C0E0D0E0F801EC0FFD1FD9
:1008700080810E9489032196C830D105B1F78E2D61
:100880006D2D0E9467038F2D0E948903DF91CF9108
:100890001F910F91FF90EF90DF9008951F93CF93DA
:1008A000DF93EC0110E003C00E9489031F5FFE018B
:1008B000E10FF11D80818823B9F7DF91CF911F915E
:1008C00008950F931F9384EF91E028EC30E0F90135
:1008D0003197F1F70197D9F781E064E041E00E9498
:1008E000560081E065E041E00E94560081E066E04C
:1008F00041E00E94560081E067E041E00E9456001E
:1009000081E061E041E00E94560081E062E041E068
:100910000E94560081E063E041E00E94560082E0C0
:100920000E94CF0200ED17E0C8010197F1F788E2BD
:100930000E94CF02C8010197F1F78EE00E94CF021A
:10094000C8010197F1F781E00E94CF0280E797E1AB
:100950000197F1F786E00E94CF02C8010197F1F7F5
:100960001F910F910895EF92FF920F931F93CF93D2
:10097000DF93082FFF24C0E4DCE934E0E32EEF0C22
:10098000802F6E2D40E00E94CF0010E0802F612F5D
:100990000E947D01882329F5CE010197F1F7802F70
:1009A000612F0E947D018823E1F4802F612F0E9436
:1009B0007D018823D1F380E49CE90197F1F7802F32
:1009C0006E2D41E00E94CF00812F90E0FC01EE0FE0
:1009D000FF1FE80FF91FEF0DF11DED51FF4F808153
:1009E0000EC01F5F143091F6802F6E2D41E00E94E3
:1009F000CF00F39483E0F81609F0BFCF8FEFDF91BB
:100A0000CF911F910F91FF90EF9008951F93182F92
:100A100060EF0E94AE01812F6FEF0E94BF011F9116
:100A200008950F931F93142F022F40E00E94CF00D0
:100A3000812F602F40E00E94CF001F910F910895F9
:100A40000F931F93142F022F40E00E94CF00812F9D
:100A5000602F41E00E94CF001F910F9108950F93E6
:100A60001F93142F022F41E00E94CF00812F602F8F
:100A700040E00E94CF001F910F9108950F931F93A4
:100A8000142F022F41E00E945600812F602F41E079
:100A90000E9456001F910F9108950E9448010895E9
:100AA00040E00E94CF00089541E00E94CF000895E9
:100AB00041E00E94560008950E94810380E060E0BA
:100AC0000E9467038091F000882319F080E690E08F
:100AD00002C089E690E00E944E0480E069E00E9436
:100AE00067038091F100882319F082E790E002C04B
:100AF0008BE790E00E944E0481E060E00E94670373
:100B00008091F200882319F084E890E002C08DE81B
:100B100090E00E944E0481E069E00E9467038091AA
:100B2000F300882319F086E990E002C08FE990E095
:100B30000E944E04089580E065E00E94540584EF11
:100B400091E028EC30E0F9013197F1F70197D9F7FE
:100B500080E065E00E94500508958F929F92AF92C9
:100B6000BF92CF92DF92EF92FF920F931F93DF938A
:100B7000CF9300D000D0CDB7DEB70E94610485E0EE
:100B800061E00E94FA0182E00E94060583E062E0D3
:100B90000E94CB0283E063E00E94CB0283E064E02A
:100BA0000E94CB0283E065E00E94CB0280E061E01E
:100BB0000E94B10280E062E00E94B10280E063E046
:100BC0000E94B10280E064E00E94B10283E060E034
:100BD00043E021E00E943E0580E065E00E94580568
:100BE00080E090E00E9451008F3FA1F480E090E00F
:100BF00061E30E94490081E090E062E30E944900C5
:100C000082E090E063E30E94490083E090E064E3C7
:100C10000E94490080E090E00E945100882E81E00F
:100C200090E00E945100982E82E090E00E945100D6
:100C3000A82E83E090E00E945100B82E6E01089427
:100C4000C11CD11C88ECE82EF12C0E94810380E0AD
:100C500060E00E94670388EA90E00E944E0481E011
:100C600060E00E94670300E082E00E94B304182F56
:100C70008F3FD1F30E949B05F601E00FF11D108319
:100C80008AE20E9489030F5F82E00E94B3048F3FD3
:100C9000D9F784EF91E0F7013197F1F70197D9F790
:100CA000043010F388EB9BE0F7013197F1F70197DF
:100CB000D9F789818815A1F58A81891589F58B81F4
:100CC0008A1571F58C818B1559F50E94810388EB8B
:100CD00090E00E944E0480E197E228EC30E0F901B8
:100CE0003197F1F70197D9F70E94810380E060E026
:100CF0000E94670385EC90E00E944E0481E060E072
:100D00000E94670380ED90E00E944E0488E99AE318
:100D100028EC30E0F9013197F1F70197D9F716C0C7
:100D20000E94810388ED90E00E944E0480E065E01F
:100D30000E94540580E197E2F7013197F1F701979E
:100D4000D9F780E065E00E9450057FCF0E945C05E6
:100D500008EC10E080E061E00E948F028823D9F463
:100D60008091F00091E089278093F00083E062E0B9
:100D70000E94C0020E945C050E949B0580E061E029
:100D80000E948F028823D1F384EF91E0F80131971C
:100D9000F1F70197D9F780E062E00E948F02882383
:100DA000D9F48091F10091E089278093F10083E0EC
:100DB00063E00E94C0020E945C050E949B0580E0E7
:100DC00062E00E948F028823D1F384EF91E0F80162
:100DD0003197F1F70197D9F780E063E00E948F0225
:100DE0008823D9F48091F20091E089278093F20062
:100DF00083E064E00E94C0020E945C050E949B05A3
:100E000080E063E00E948F028823D1F384EF91E0B9
:100E1000F8013197F1F70197D9F780E064E00E947B
:100E20008F028823D9F48091F30091E08927809381
:100E3000F30083E065E00E94C0020E945C050E940E
:100E40009B0580E064E00E948F028823D1F384EF49
:100E500091E0F8013197F1F70197D9F78091F3000C
:100E6000813011F580E00E942F020E945C02A0E018
:100E7000B0E0BC01CD0124EF31E040E050E00E9441
:100E80005B07605078468040904038F083E060E037
:100E900043E021E00E9420055DCF83E060E043E075
:100EA00021E00E942F0556CF83E060E043E021E07F
:100EB0000E9411054FCF629FD001739FF001829F66
:100EC000E00DF11D649FE00DF11D929FF00D839FD9
:100ED000F00D749FF00D659FF00D9927729FB00D76
:100EE000E11DF91F639FB00DE11DF91FBD01CF0189
:080EF00011240895F894FFCFCE
:100EF8004C4544313A4F4E20004C4544313A4F4618
:100F080046004C4544323A4F4E20004C4544323A54
:100F18004F464600545620203A4F4E200054562043
:100F2800203A4F464600414320203A4F4E20004188
:100F38004320203A4F464600456E74657220506142
:100F48007373776F72643A00436F727265637420CB
:100F58005061737300536D61727420486F6D650042
:100F680050726F6A6563740057726F6E67205061C4
:100F78007373003132333435363738392A30230029
:00000001FF
